:100000000C943F000C9467000C9467000C946700FC
:100010000C9467000C9467000C9467000C946700C4
:100020000C9467000C94CC020C94F5020C941E0303
:100030000C94C2030C9447030C9470030C94990322
:100040000C9451020C947A020C94A3020C94670055
:100050000C9467000C9467000C9467000C94670084
:100060000C9467000C9467000C9467000C94670074
:100070000C9467000C9467000C9467004F051124E2
:100080001FBECFEFD0E1DEBFCDBF11E0A0E0B1E0F9
:10009000E2E4FCE002C005900D92AE31B107D9F761
:1000A00011E0AEE1B1E001C01D92AD38B107E1F75A
:1000B00010E0CEE7D0E004C02297FE010E94A9051F
:1000C000CC37D107C9F70E9449010C941F060C9444
:1000D0000000549A0895CF93DF9380E00E94B0000F
:1000E0008139910544F52FEF30E040E050E060E0C9
:1000F00070E0CB010E94DD01709305016093040163
:1001000080E00E94B000EC0180E00E94B000BC01E1
:100110008AE08C9F90018D9F300D1124442737FD7C
:100120004095542F882777FD8095982F0E94DD01F8
:100130000E94270104C010920501109204016091F1
:1001400004017091050142E084E0DF91CF910C94AD
:10015000500180E480937C0087E880937A000895C2
:10016000CF93DF931F92CDB7DEB790910601913008
:1001700031F489830E94A900109206018981877059
:100180002091070140E4249F90011124822B809349
:100190007C0080917A00806480937A0080917A005C
:1001A00086FDFCCF2091780030917900932F80E07C
:1001B000FC01E22B9F01C9010F90DF91CF910895BF
:1001C00080911F0190912001A0912101B091220105
:1001D00030911E01232F2D5F2D3720F40196A11D94
:1001E000B11D05C0232F2A570296A11DB11D2093D2
:1001F0001E0180931F0190932001A0932101B093D1
:1002000022018091230190912401A0912501B091B8
:1002100026010196A11DB11D809323019093240115
:10022000A0932501B093260108950F931F938FB7D4
:10023000F89400911F01109120012091210130912B
:1002400022018FBFB801C9011F910F9108958F92AC
:100250009F92AF92BF92CF92DF92EF92FF926B018B
:100260007C010E9415014B015C010E941501681977
:1002700079098A099B096C157D058E059F05A8F3F0
:10028000FF90EF90DF90CF90BF90AF909F908F90B6
:1002900008950E94FB010E9469000E946B00FDCF3F
:1002A0001F93CF93DF93182FEB01209721F460E089
:1002B0000E94230240E0143079F1153029F1163004
:1002C000E9F1173099F1133169F0143109F044C0A4
:1002D00011C060E001C061E0812FDF91CF911F91DB
:1002E0000C94230260E08BE691E00E94FE04AE01D4
:1002F00060E007C061E08BE691E00E94FE04AE0181
:1003000061E08BE691E023C060E089E491E00E9427
:10031000FE04AE0160E007C061E089E491E00E9464
:10032000FE04AE0161E089E491E011C060E087E283
:1003300091E00E94FE04AE0160E007C061E087E248
:1003400091E00E94FE04AE0161E087E291E0DF915E
:10035000CF911F910C942B05C038D10508F4B9CF6B
:10036000BACF0F931F93CF93DF9300D000D0CDB7B8
:10037000DEB79B01AC01611571058105910579F02E
:1003800069833A834B835C830E94090629813A8101
:100390004B815C810E945E058B019C0103C000E0E3
:1003A00010E09801B801C9010F900F900F900F90C5
:1003B000DF91CF911F910F910895CF92DF92EF922D
:1003C000FF926B017C01621773078407950764F441
:1003D000CA01B9016C197D098E099F090E94B101FA
:1003E000C60ED71EE81EF91EB601C701FF90EF909A
:1003F000DF90CF90089563E08BE691E00E94E804DF
:1004000021E040EE50E060E08BE691E00E94BE0407
:1004100064E08BE691E00E94EB0361E089E491E007
:100420000E94E80464E089E491E00E94EB0361E04B
:1004300087E291E00E94E80464E087E291E00E9494
:10044000EB0378940895982F977021E030E0092EFF
:1004500001C0220F0A94EAF786958695869581F069
:10046000813089F0823091F08330D1F412C08081E4
:100470002095822302C08081822B80839FBF0895B4
:10048000EBE2F0E008C0E8E2F0E005C0E5E2F0E011
:1004900002C0E2E2F0E09FB7F894662341F3EBCFAD
:1004A00008951F920F920FB60F9211242F933F932E
:1004B0004F935F936F937F938F939F93AF93BF936C
:1004C000EF93FF93E0918501F0918601309709F059
:1004D0000995FF91EF91BF91AF919F918F917F917E
:1004E0006F915F914F913F912F910F900FBE0F90A1
:1004F0001F9018951F920F920FB60F9211242F93F1
:100500003F934F935F936F937F938F939F93AF939B
:10051000BF93EF93FF93E0918701F09188013097AB
:1005200009F00995FF91EF91BF91AF919F918F9144
:100530007F916F915F914F913F912F910F900FBEDF
:100540000F901F9018951F920F920FB60F921124C3
:100550002F933F934F935F936F937F938F939F93CB
:10056000AF93BF93EF93FF93E0918301F0918401E8
:10057000309709F00995FF91EF91BF91AF919F914D
:100580008F917F916F915F914F913F912F910F903C
:100590000FBE0F901F9018951F920F920FB60F92DB
:1005A00011242F933F934F935F936F937F938F9378
:1005B0009F93AF93BF93EF93FF93E0914101F0912D
:1005C0004201309709F00995FF91EF91BF91AF91EA
:1005D0009F918F917F916F915F914F913F912F915B
:1005E0000F900FBE0F901F9018951F920F920FB68D
:1005F0000F9211242F933F934F935F936F937F93A9
:100600008F939F93AF93BF93EF93FF93E091430139
:10061000F0914401309709F00995FF91EF91BF9156
:10062000AF919F918F917F916F915F914F913F918A
:100630002F910F900FBE0F901F9018951F920F9241
:100640000FB60F9211242F933F934F935F936F93A5
:100650007F938F939F93AF93BF93EF93FF93E0911B
:100660003F01F0914001309709F00995FF91EF911A
:10067000BF91AF919F918F917F916F915F914F91BA
:100680003F912F910F900FBE0F901F9018951F92C2
:100690000F920FB60F9211242F933F934F935F93B6
:1006A0006F937F938F939F93AF93BF93EF93FF933A
:1006B000E0916301F0916401309709F00995FF9191
:1006C000EF91BF91AF919F918F917F916F915F91CA
:1006D0004F913F912F910F900FBE0F901F90189543
:1006E0001F920F920FB60F9211242F933F934F93A7
:1006F0005F936F937F938F939F93AF93BF93EF938A
:10070000FF93E0916501F0916601309709F009953A
:10071000FF91EF91BF91AF919F918F917F916F91D9
:100720005F914F913F912F910F900FBE0F901F90AF
:1007300018951F920F920FB60F9211242F933F938B
:100740004F935F936F937F938F939F93AF93BF93D9
:10075000EF93FF93E0916101F0916201309709F00E
:100760000995FF91EF91BF91AF919F918F917F91EB
:100770006F915F914F913F912F910F900FBE0F900E
:100780001F9018951F920F920FB60F9211242F935E
:100790003F934F935F936F937F938F939F93AF9309
:1007A000BF93EF93FF93E0916901F0916A01309755
:1007B00009F00995FF91EF91BF91AF919F918F91B2
:1007C0007F916F915F914F913F912F910F900FBE4D
:1007D0000F901F901895DC012C916150223039F454
:1007E000673068F4E62FF0E0E85FFE4F06C069303E
:1007F00030F4E62FF0E0E15FFE4F208101C020E001
:10080000DC011A96ED91FC911B978081887F822BE9
:1008100080830895CF93DF93EC016883613011F1F9
:1008200020F0623009F06CC048C01B821A8286E456
:1008300090E09D838C838EE690E09F838E8384E49A
:1008400090E09987888785E490E09B878A871D865A
:100850001C8687E490E09F878E87198A188A88E42F
:1008600090E022C08FE690E09F838E8385E890E041
:100870009B838A8384E890E09D838C8380E890E06A
:100880009987888781E890E09B878A8789E890E04C
:100890009D878C8788E890E09F878E878BE890E023
:1008A000998B888B8AE890E09B8B8A8B1D8A1C8AA7
:1008B0001F8A1E8A82E0898323C01B821A8282EBF0
:1008C00090E09D838C8380E790E09F838E8380EB14
:1008D00090E09987888781EB90E09B878A871D86C7
:1008E0001C8683EB90E09F878E87198A188A84EB99
:1008F00090E09B8B8A8B1D8A1C8A1F8A1E8A6983C3
:1009000060E0CE010E94EB03EA81FB81309709F0A1
:100910001082EC81FD811082198E188E1B8E1A8E2A
:100920001D8E1C8E1F8E1E8E19A218A2DF91CF91D4
:10093000089551E0411101C050E06530F0F4E62F18
:10094000F0E0E85EFE4F408147FD17C0DC011696DF
:10095000ED91FC911797808121E030E0042E01C0D9
:10096000220F0A94EAF720952823852F042E01C030
:10097000880F0A94EAF7282B20830895623099F0B3
:1009800028F4662341F06130C9F409C0633079F07E
:100990006430A1F410C0FC01518F408F0FC0FC01E6
:1009A000538F428F0BC0FC01558F448F07C0FC0151
:1009B000578F468F03C0FC0151A340A3452B11F470
:1009C00040E003C0222319F041E00C9499040895FB
:1009D000DC011896ED91FC9119973081262F237038
:1009E0003C7F232B20831A96ED91FC911B978081ED
:1009F0006C70660F877E682B60830895FC0181818F
:100A0000681740F59081992311F0923011F48130EC
:100A100049F0662329F0613029F0623031F404C0D6
:100A200026E003C024E001C022E00084F185E02D2F
:100A3000308183E090E0022E01C0880F0A94EAF72B
:100A4000809583234370022E01C0440F0A94EAF775
:100A5000842B80830895FC0181816817F8F461116B
:100A600009C0A485B585109709F05C930684F785C5
:100A7000E02D13C0613049F4A089B189109709F0C5
:100A80005C930288F389E02D08C0623039F4A489B0
:100A9000B5895C930688F789E02D4083089560E06E
:100AA0008BE691E00E940A0461E089E491E00E94F3
:100AB0000A0462E087E291E00C940A04052E97FB99
:100AC00016F4009407D057FD0DD00E94850507FC51
:100AD00009D07EF490958095709561957F4F8F4FEA
:100AE0009F4F089550954095309521953F4F4F4F1A
:100AF0005F4F08950E94AD05A59F900DB49F900D86
:100B0000A49F800D911D11240895A1E21A2EAA1B05
:100B1000BB1BFD010DC0AA1FBB1FEE1FFF1FA217AD
:100B2000B307E407F50720F0A21BB30BE40BF50BAA
:100B3000661F771F881F991F1A9469F76095709533
:100B4000809590959B01AC01BD01CF010895EE0FFA
:100B5000FF1F0590F491E02D0994A29FB001B39F6F
:100B6000C001A39F01D0B29F700D811D1124911D62
:100B700008958F929F92AF92BF92CF92DF92EF92A1
:100B8000FF92CF93DF93EC01688179818A819B8109
:100B9000611571058105910521F464E279ED8BE51C
:100BA00097E02DE133EF41E050E00E945E054901FE
:100BB0005A019B01AC01A7EAB1E40E947A056B01DE
:100BC0007C01ACEEB4EFA50194010E941A06C60E9A
:100BD000D71EE81EF91EF7FE06C081E0C81AD1082C
:100BE000E10880E8F80AC882D982EA82FB82E894A8
:100BF000F7F8B601C701DF91CF91FF90EF90DF903A
:100C0000CF90BF90AF909F908F9008950E94B905AC
:100C1000089580E091E00E94B90508956093000175
:100C20007093010180930201909303010895B7FF2F
:100C30000C947A050E947A05821B930B0895F89410
:020C4000FFCFE4
:100C42000100000080000101010203040506070102
:0E0C520002000300040506070001020305006E
:00000001FF
