:100000000C9442000C946A000C946A000C946A00F0
:100010000C946A000C946A000C946A000C946A00B8
:100020000C946A000C94E30A0C940C0B0C94350BA2
:100030000C94D90B0C945E0B0C94870B0C94B00BA6
:100040000C94680A0C94910A0C94BA0A0C946A00F5
:100050000C948D090C9440070C946A000C946A006F
:100060000C946A000C946A000C946A000C946A0068
:100070000C9462090C948E070C946A00EA01BB058B
:10008000B809150D11241FBECFEFD0E1DEBFCDBFE3
:1000900011E0A0E0B1E0E2E2FBE102C005900D92C8
:1000A000AC34B107D9F714E0ACE4B1E001C01D9263
:1000B000A339B107E1F710E0C4E8D0E004C022970B
:1000C000FE010E947F0DCC37D107C9F70E94870639
:1000D0000C948F0D0C940000EF920F931F93CF930D
:1000E000DF93CDB7DEB728970FB6F894DEBF0FBE0B
:1000F000CDBF09831A832B833C834D835E836F833B
:100100007887FC0110821182128213821482158278
:100110001682178228E0FE013196DC0101900D92D3
:100120002A95E1F7FC01E0861186128628960FB623
:10013000F894DEBF0FBECDBFDF91CF911F910F911D
:10014000EF900895FC0180850895FC016187089572
:10015000FC0181850895FC0181859285891719F03C
:10016000828781E0089580E00895CF93DF93CDB733
:10017000DEB728970FB6F894DEBF0FBECDBF28E0DC
:10018000FC01DE01119601900D922A95E1F729817B
:100190003A814B815C816D817E818F819885289623
:1001A0000FB6F894DEBF0FBECDBFDF91CF9108959B
:1001B000EF920F93E12C01E028E040E051EE60E087
:1001C00070E081ED93E00E94600828E040E051EE8D
:1001D00060E070E085E793E00E94600865E773E007
:1001E00086EE92E00F91EF900C94DE048FE592E0A2
:1001F0000C94DB050F93CF93DF93CDB7DEB76C97ED
:100200000FB6F894DEBF0FBECDBF2D8B3E8B4F8B4C
:10021000588F698F7A8F8B8F9C8FCE0101960E94A9
:100220000705BE016B5E7F4FCE0101960E9422053D
:100230000C8BBE016C5E7F4FCE0101960E940005C3
:1002400061E0CE0101960E94040560E0CE010196B6
:100250000E94FD0461E0CE0101960E942B05BE01C3
:100260006F5F7F4F86EE92E00E944B056C960FB653
:10027000F894DEBF0FBECDBFDF91CF910F910895EF
:100280009F92AF92BF92CF92DF92EF92FF920F9325
:100290001F93CF93DF93CDB7DEB760970FB6F89477
:1002A000DEBF0FBECDBF8FE592E00E944A068230CE
:1002B00009F07EC060E08FE592E00E944D06982E26
:1002C00061E08FE592E00E944D06682F70E080E0CB
:1002D00090E01F921F921F922FEF2F93A12CB12C11
:1002E00065011FE7E12EF12C00E010E021E030E095
:1002F00040E050E00E94EA09D62E0F900F900F9038
:100300000F9000E010E03BE0C32EC09E7001C19E44
:10031000F00C11248CE491E0E80EF91EC7010E9454
:10032000A200891104C06D2DC7010E94A5000F5FB6
:100330001F4F0931110549F7E12CF12C8BE0982E64
:1003400098E0D92E9E9C80019F9C100D1124045B87
:100350001E4FC8010E94AB00882319F1C8010E94FA
:10036000A800C82EC8010E94B50029873A874B878C
:100370005C876D877E878F87988BFE013996DE01BB
:1003800011968D2D01900D928A95E1F70C2D298102
:100390003A814B815C816D817E818F8198850E943D
:1003A000FA009FEFE91AF90A89E1E816F10451F61B
:1003B00060960FB6F894DEBF0FBECDBFDF91CF9130
:1003C0001F910F91FF90EF90DF90CF90BF90AF9073
:1003D0009F9008958F929F92AF92BF92EF920F934A
:1003E0001F93CF93DF93CDB7DEB728970FB6F8945E
:1003F000DEBF0FBECDBF86EE92E00E94CC0440E48B
:1004000051E061ED73E08FE592E00E94D005812C10
:1004100042EA942E43E1A42EB12C082D89829A82BF
:10042000AB82BC828CE59CE6A6EEB0E4482F8D83BF
:100430009E83AF83B88750E3E52E1A812B813C81E0
:100440005E816F8178858CE491E00E946C008982E6
:100450009A82AB82BC828DE29CE6A6EEB0E4482F85
:100460008D839E83AF83B88761E3E62E1A812B814B
:100470003C815E816F81788587E591E00E946C0008
:1004800089829A82AB82BC828BEC9DE6A6EEB0E4B8
:10049000482F8D839E83AF83B88772E3E72E1A813E
:1004A0002B813C815E816F81788582E691E00E949C
:1004B0006C0089829A82AB82BC8282E49CE6A6EEC2
:1004C000B0E4482F8D839E83AF83B887E3E3EE2E9D
:1004D0001A812B813C815E816F8178858DE691E068
:1004E0000E946C0089829A82AB82BC8281E29CE687
:1004F000A6EEB0E4482F8D839E83AF83B887F4E3E4
:10050000EF2E1A812B813C815E816F81788588E78F
:1005100091E00E946C0089829A82AB82BC828DE15C
:100520009CE6A6EEB0E4482F8D839E83AF83B88708
:10053000ACE3EA2E1A812B813C815E816F81788544
:1005400083E891E00E946C0089829A82AB82BC822F
:100550008CE39CE6A6EEB0E4482F8D839E83AF83A8
:10056000B887BDE3EB2E1A812B813C815E816F81C0
:1005700078858EE891E00E946C0089829A82AB8235
:10058000BC8284ED98E6A6EEB0E4482F8D839E836E
:10059000AF83B8871EE3E12E1A812B813C815E81F7
:1005A0006F81788589E991E00E946C0089829A8246
:1005B000AB82BC828BE59CE6A6EEB0E4482F8D832F
:1005C0009E83AF83B8878FE3E82E1A812B813C810D
:1005D0005E816F81788584EA91E00E946C00898257
:1005E0009A82AB82BC8286E49CE6A6EEB0E4482FF9
:1005F0008D839E83AF83B88790E4E92E1A812B8187
:100600003C815E816F8178858FEA91E00E946C0069
:1006100089829A82AB82BC8283E19CE6A6EEB0E43A
:10062000482F8D839E83AF83B88728E4E22E1A81FA
:100630002B813C815E816F8178858AEB91E00E94FD
:100640006C0089829A82AB82BC8287ED9DE6A6EE21
:10065000B0E4482F8D839E83AF83B88739E4E32EBF
:100660001A812B813C815E816F81788585EC91E0D8
:100670000E946C0089829A82AB82BC8289E49CE6EB
:10068000A6EEB0E4482F8D839E83AF83B8875AE4EB
:10069000E52E1A812B813C815E816F81788580ED0A
:1006A00091E00E946C0089829A82AB82BC8288E1D0
:1006B0009CE6A6EEB0E4482F8D839E83AF83B88777
:1006C0006BE4E62E1A812B813C815E816F817885F7
:1006D0008BED91E00E946C0089829A82AB82BC8291
:1006E0008FE29CE6A6EEB0E4482F8D839E83AF8315
:1006F000B8877CE4E72E1A812B813C815E816F8173
:10070000788586EE91E00E946C0089829A82AB82A5
:10071000BC8288E29CE6A6EEB0E4482F8D839E83DF
:10072000AF83B887E4E5EE2E1A812B813C815E8190
:100730006F81788581EF91E00E946C0089829A82B6
:10074000AB82BC8285E59CE6A6EEB0E4482F8D83A3
:100750009E83AF83B887F5E5EF2E1A812B813C810C
:100760005E816F8178858CEF91E00E946C008982B8
:100770009A82AB82BC828EE39CE6A6EEB0E4482F60
:100780008D839E83AF83B887A6E5EA2E1A812B81DD
:100790003C815E816F81788587E092E00E946C00E9
:1007A00089829A82AB82BC8282E19CE6A6EEB0E4AA
:1007B000482F8D839E83AF83B887B7E5EB2E1A81D0
:1007C0002B813C815E816F81788582E192E00E947D
:1007D0006C0089829A82AB82BC8288E49CE6A6EE99
:1007E000B0E4482F8D839E83AF83B88718E5E12E50
:1007F0001A812B813C815E816F8178858DE192E049
:100800000E946C0089829A82AB82BC8280E59CE661
:10081000A6EEB0E4482F8D839E83AF83B88780E631
:10082000E82E1A812B813C815E816F81788588E278
:1008300092E00E946C0089829A82AB82BC8284E141
:100840009CE6A6EEB0E4482F8D839E83AF83B887E5
:1008500091E6E92E1A812B813C815E816F8178853A
:1008600083E392E00E946C0089829A82AB82BC8210
:100870008BE29CE6A6EEB0E4482F8D839E83AF8387
:10088000B88722E6E22E1A812B813C815E816F813E
:1008900078858EE392E00E946C0089829A82AB8216
:1008A000BC828DE59CE6A6EEB0E4482F8D839E8346
:1008B000AF83B88733E6E32E1A812B813C815E81BA
:1008C0006F81788589E492E00E946C0089829A8227
:1008D000AB82BC8282E39CE6A6EEB0E4482F8D8317
:1008E0009E83AF83B88754E6E52E1A812B813C8125
:1008F0005E816F81788584E592E00E946C00289685
:100900000FB6F894DEBF0FBECDBFDF91CF911F9120
:100910000F91EF90BF90AF909F908F900895FC0142
:100920008681845F0895FC01611102C0828508956B
:10093000613011F481850895623011F48085089545
:10094000633011F487810895643011F48685089529
:10095000653011F485850895663011F48485089515
:10096000673011F483850895683011F48089089503
:10097000693011F4878508956A3011F481890895EA
:100980006B3011F4828908950480F581E02DE60F23
:10099000F11D3C9780810895FC0112861186148612
:1009A00015861782108615820E9691838083E458EF
:1009B000FF4F81ED93E091838083089584589F4F8A
:1009C000FC0171836083089584589F4FDC018D91F1
:1009D0009C91DC01ED91FC910284F385E02D09945A
:1009E00084589F4FFC01A081B181ED91FC9111973A
:1009F0000190F081E02DCD010994FC0163830895FD
:100A0000FC01758364830895FC0166830895FC01ED
:100A100080E1828381E083831582148216828EE0D6
:100A200091E0918380831782108611861286138647
:100A30001486158616868EEF9FEF908B8787118A16
:100A4000128A089528E0FB01DC01179601900D92AF
:100A50002A95E1F70895FC01628B08951F93CF93C7
:100A6000DF93EC01162F442379F0862F8D578230C7
:100A700020F0613111F0633139F46DE7CE010E944D
:100A8000F00460E2612701C0612FCE01DF91CF91B8
:100A90001F910C94F004DF92EF92FF920F931F933B
:100AA000CF93DF938C01EB016EE70E94F004E881A5
:100AB000F9810280F381E02DCE010995E82EE881CD
:100AC000F9810280F381E02DCE010995F82E2E2DBB
:100AD00030E02E5F3F4F41E0632FC8010E942E059A
:100AE0006F2D6E5F41E0C8010E942E0541E06A81D2
:100AF000C8010E942E0541E06B81C8010E942E05AD
:100B0000DA808B81D80EE12CF12C19C0E881F981B3
:100B10000190F081E02D6E2DCE01099541E0682F06
:100B2000C8010E942E05E881F9810190F081E02D35
:100B30006E2DCE010995D80E8FEFE81AF80AE881DC
:100B4000F9810280F381E02DCE010995282F30E054
:100B5000E216F306DCF26D2D609541E0C8010E94BB
:100B60002E05C801DF91CF911F910F91FF90EF905B
:100B7000DF900C94E40410926403109265031092C9
:100B80006603109267038FEF9FEFA0E0B0E08093C1
:100B9000680390936903A0936A03B0936B0308956D
:100BA000FC01EB57FF4F71836083FC01ED57FF4F52
:100BB000518340830895BF92CF92DF92EF92FF92CC
:100BC0000F931F93CF93DF93EC017C0185E8E80E30
:100BD000F11C8E010E571F4FBB24B3946E01A3E886
:100BE000CA0ED11CF70180819181DC01ED91FC914D
:100BF0000480F581E02D0995892B09F441C0F701A6
:100C000080819181DC01ED91FC910084F185E02DE2
:100C10000995803C910579F488818983882331F096
:100C2000D601ED91FC91309709F009951882F801F1
:100C300010821982D7CF8B3D910519F4D801BC924F
:100C4000D1CFF8012081222371F08C3D910521F054
:100C50008D3D910531F403C080EC90E002C08BED36
:100C600090E0D8011C929881FE01E90FF11D82836A
:100C7000892F8F5F803811F08883B4CF1882B2CF6C
:100C8000DF91CF911F910F91FF90EF90DF90CF9068
:100C9000BF900895FC0181810895860F911DFC018C
:100CA0008281089580916D0390916E03A0916F03EE
:100CB000B091700330916C03232F2D5F2D3720F4FA
:100CC0000196A11DB11D05C0232F2A570296A11D13
:100CD000B11D20936C0380936D0390936E03A093DA
:100CE0006F03B09370038091710390917203A09190
:100CF0007303B09174030196A11DB11D809371031C
:100D000090937203A0937303B093740308950E94A9
:100D1000400A0E94D8000E94F600FDCFFC01208905
:100D20003189C9010895DC0150962D913C9151976C
:100D3000232B49F05496ED91FC915597E80FF91F3C
:100D4000268930E002C02FEF3FEFC9010895FC0172
:100D5000118A108A158A148A138A128A0895FC014E
:100D600024813581C9010895FC0124813581C9019F
:100D70000895FC0180899189892BD1F03FB7F894BF
:100D8000808991890197918B808B84899589DF0176
:100D9000A80FB91F56962C910196803291051CF42C
:100DA000958B848B02C0158A148A3FBF30E002C045
:100DB0002FEF3FEFC9010895EF92FF921F93CF935A
:100DC000DF931F92CDB7DEB77C01D701DA968D9104
:100DD0009C91DB974097C8F71FB7F894D696ED9192
:100DE000FC91D7970190F081E02DC701C6966983E9
:100DF000099569814097C8F4F70182AD93AD0196DA
:100E000093AF82AF84AD95ADE80FF91FE05CFF4F63
:100E100060830196D701DD969C938E93DC97409773
:100E200024F0DD961C921E92DC97F701EA5AFF4FE0
:100E30000190F081E02D8081806280831FBF81E07E
:100E400090E00F90DF91CF911F91FF90EF90089568
:100E5000665F7F4F680F791FCB010895665F7F4FF4
:100E6000680F791FCB010895665F7F4F680F791F68
:100E7000CB010895665F7F4F680F791FCB010895FE
:100E80001F920F920FB60F9211242F938F939F935F
:100E9000AF93BF93EF93FF9380910B0490910C0459
:100EA000892B21F1E0912B04F0912C0480910B040B
:100EB00090910C04019790930C0480930B04809103
:100EC0000F0490911004DC01A95FBB4F1A962C917E
:100ED0000196803191052CF49093100480930F04B7
:100EE00004C01092100410920F04208380910B0410
:100EF00090910C04892B31F4E0912704F09128049F
:100F000088E98083FF91EF91BF91AF919F918F917D
:100F10002F910F900FBE0F901F9018951F920F9258
:100F20000FB60F9211242F938F939F93AF93BF937C
:100F3000EF93FF938091AF039091B003892B21F140
:100F4000E091CF03F091D0038091AF039091B00373
:100F500001979093B0038093AF038091B303909176
:100F6000B403DC01A555BC4F1A962C910196803133
:100F700091052CF49093B4038093B30304C01092B2
:100F8000B4031092B30320838091AF039091B00318
:100F9000892B31F4E091CB03F091CC0388E9808375
:100FA000FF91EF91BF91AF919F918F912F910F90F2
:100FB0000FBE0F901F901895FC01262F13821282EE
:100FC00048EE53E060E070E04483558366837783A6
:100FD00086E191E09183808386E291E09587848722
:100FE00080E290E097878687118A108A158A148A92
:100FF000138A128A80E391E097AB86AB80E190E0A0
:1010000091AF80AF13AE12AE17AE16AE15AE14AEE2
:10101000222321F0213009F052C028C0DF01A05B5B
:10102000BF4F85EC90E08D939C93DF01AE5ABF4F8C
:1010300084EC90E08D939C93DF01AC5ABF4F80EC21
:1010400090E08D939C93DF01AA5ABF4F81EC90E012
:101050008D939C93DF01A85ABF4F82EC90E08D9353
:101060009C93E65AFF4F86EC90E027C0DF01A05B1F
:10107000BF4F8DEC90E08D939C93DF01AE5ABF4F34
:101080008CEC90E08D939C93DF01AC5ABF4F88ECC1
:1010900090E08D939C93DF01AA5ABF4F89EC90E0BA
:1010A0008D939C93DF01A85ABF4F8AEC90E08D93FB
:1010B0009C93E65AFF4F8EEC90E0918380830895D5
:1010C0003F924F925F926F927F928F929F92AF92D8
:1010D000BF92CF92DF92EF92FF920F931F93CF9325
:1010E000DF93EC014A015B01122F3E2C60E072E1BC
:1010F0008AE790E0A50194010E94340D69017A010C
:1011000084E0C80ED11CE11CF11C83E0F694E79446
:10111000D794C7948A95D1F760E074E284EF90E0A9
:10112000A50194010E94340D29013A0194E0490E71
:10113000511C611C711C93E07694679457944794FA
:101140009A95D1F7A30192014427552760E874E8E6
:101150008EE190E00E94560D5901A818B908B7FE1B
:1011600003C0B194A194B108A70196014427552763
:1011700060E472E48FE090E00E94560D281939096E
:1011800037FF03C0319521953109FE01EC5AFF4F1D
:101190000190F081E02DA216B3063CF482E080833A
:1011A000620181E0C81AD10804C0108291E0C91A16
:1011B000D1081630C1F018F4153099F405C0173075
:1011C00029F0193071F404C080E00EC084E00CC036
:1011D000FE01EA5AFF4F0190F081E02D808184608A
:1011E000808386E001C082E0023009F4886091E0EB
:1011F000391621F092E0391204C002C0806301C0A8
:101200008062FE01E85AFF4F0190F081E02D80835B
:10121000FE01E05BFF4F0190F081E02DD082FE01E6
:10122000EE5AFF4F0190F081E02DC082CA5ADF4F85
:10123000E881F98188E98083DF91CF911F910F9137
:10124000FF90EF90DF90CF90BF90AF909F908F90E6
:101250007F906F905F904F903F9008950F931F93F2
:10126000CF93DF931F92CDB7DEB78C01DC01ED91F8
:10127000FC910190F081E02D698309956981809747
:10128000D0F4F801848195810196958384838681C9
:101290009781E80FF91F628701968032910534F437
:1012A000D80117969C938E93169703C0F801178266
:1012B000168281E001C080E00F90DF91CF911F91F5
:1012C0000F9108951F920F920FB60F9211242F9332
:1012D0003F934F935F936F937F938F939F93AF93BE
:1012E000BF93EF93FF93E091CF03F091D003608120
:1012F00081E893E00E942E09FF91EF91BF91AF9199
:101300009F918F917F916F915F914F913F912F911D
:101310000F900FBE0F901F9018951F920F920FB64F
:101320000F9211242F933F934F935F936F937F936B
:101330008F939F93AF93BF93EF93FF93E0912B0411
:10134000F0912C0460818DED93E00E942E09FF91B5
:10135000EF91BF91AF919F918F917F916F915F912D
:101360004F913F912F910F900FBE0F901F901895A6
:1013700060E081ED93E00E94DC0761E085E793E0A7
:101380000C94DC07CF92DF92EF92FF920F931F93A2
:10139000CF93DF936C01EB017A01E60EF71E00E0BC
:1013A00010E00BC06991D601ED91FC910190F081A4
:1013B000E02DC6010995080F191FCE15DF0591F71D
:1013C000C801DF91CF911F910F91FF90EF90DF90B7
:1013D000CF9008954F925F926F927F92AF92BF929B
:1013E000CF92DF92EF92FF920F931F93CF93DF93F1
:1013F00000D000D0CDB7DEB72B013C0129833A8362
:101400004B835C836D897E898F89988D421A530A3C
:10141000640A750A6A197B098C099D096F5F7F4F01
:101420008F4F9F4FA30192010E94240D29813A8181
:101430004B815C81E21AF30A040B150B3FEFE31AB0
:10144000F30A0F4F1F4FA80197010E94560D2A0D56
:101450003B1D4C1D5D1DB901CA010F900F900F90EF
:101460000F90DF91CF911F910F91FF90EF90DF9040
:10147000CF90BF90AF907F906F905F904F90089506
:1014800063E081E794E00E94FF0C21E042E556E032
:1014900060E081E794E00E94D50C64E081E794E08D
:1014A0000E94020C61E08FE494E00E94FF0C64E073
:1014B0008FE494E00E94020C61E08DE294E00E94CF
:1014C000FF0C64E08DE294E00E94020C7894089591
:1014D0001F920F920FB60F9211242F933F934F93A9
:1014E0005F936F937F938F939F93AF93BF93EF938C
:1014F000FF93E0918B04F0918C04309709F00995EB
:10150000FF91EF91BF91AF919F918F917F916F91DB
:101510005F914F913F912F910F900FBE0F901F90B1
:1015200018951F920F920FB60F9211242F933F938D
:101530004F935F936F937F938F939F93AF93BF93DB
:10154000EF93FF93E0918D04F0918E04309709F0B2
:101550000995FF91EF91BF91AF919F918F917F91ED
:101560006F915F914F913F912F910F900FBE0F9010
:101570001F9018951F920F920FB60F9211242F9360
:101580003F934F935F936F937F938F939F93AF930B
:10159000BF93EF93FF93E0918904F0918A04309711
:1015A00009F00995FF91EF91BF91AF919F918F91B4
:1015B0007F916F915F914F913F912F910F900FBE4F
:1015C0000F901F9018951F920F920FB60F92112433
:1015D0002F933F934F935F936F937F938F939F933B
:1015E000AF93BF93EF93FF93E0914704F0914804CA
:1015F000309709F00995FF91EF91BF91AF919F91BD
:101600008F917F916F915F914F913F912F910F90AB
:101610000FBE0F901F9018951F920F920FB60F924A
:1016200011242F933F934F935F936F937F938F93E7
:101630009F93AF93BF93EF93FF93E0914904F09191
:101640004A04309709F00995FF91EF91BF91AF914E
:101650009F918F917F916F915F914F913F912F91CA
:101660000F900FBE0F901F9018951F920F920FB6FC
:101670000F9211242F933F934F935F936F937F9318
:101680008F939F93AF93BF93EF93FF93E0914504A4
:10169000F0914604309709F00995FF91EF91BF91C1
:1016A000AF919F918F917F916F915F914F913F91FA
:1016B0002F910F900FBE0F901F9018951F920F92B1
:1016C0000FB60F9211242F933F934F935F936F9315
:1016D0007F938F939F93AF93BF93EF93FF93E0918B
:1016E0006904F0916A04309709F00995FF91EF9130
:1016F000BF91AF919F918F917F916F915F914F912A
:101700003F912F910F900FBE0F901F9018951F9231
:101710000F920FB60F9211242F933F934F935F9325
:101720006F937F938F939F93AF93BF93EF93FF93A9
:10173000E0916B04F0916C04309709F00995FF91EA
:10174000EF91BF91AF919F918F917F916F915F9139
:101750004F913F912F910F900FBE0F901F901895B2
:101760001F920F920FB60F9211242F933F934F9316
:101770005F936F937F938F939F93AF93BF93EF93F9
:10178000FF93E0916704F0916804309709F00995A0
:10179000FF91EF91BF91AF919F918F917F916F9149
:1017A0005F914F913F912F910F900FBE0F901F901F
:1017B00018951F920F920FB60F9211242F933F93FB
:1017C0004F935F936F937F938F939F93AF93BF9349
:1017D000EF93FF93E0916F04F0917004309709F05C
:1017E0000995FF91EF91BF91AF919F918F917F915B
:1017F0006F915F914F913F912F910F900FBE0F907E
:101800001F901895DC012C916150223039F467301B
:1018100068F4E62FF0E0EA5CFE4F06C0693030F471
:10182000E62FF0E0E35CFE4F208101C020E0DC0108
:101830001A96ED91FC911B978081887F822B808383
:101840000895CF93DF93EC016883613011F120F0AC
:10185000623009F06CC048C01B821A8286E490E0B6
:101860009D838C838EE690E09F838E8384E490E05A
:101870009987888785E490E09B878A871D861C86E8
:1018800087E490E09F878E87198A188A88E490E021
:1018900022C08FE690E09F838E8385E890E09B8353
:1018A0008A8384E890E09D838C8380E890E0998728
:1018B000888781E890E09B878A8789E890E09D8708
:1018C0008C8788E890E09F878E878BE890E0998BE3
:1018D000888B8AE890E09B8B8A8B1D8A1C8A1F8AE2
:1018E0001E8A82E0898323C01B821A8282EB90E0E9
:1018F0009D838C8380E790E09F838E8380EB90E0D4
:101900009987888781EB90E09B878A871D861C8654
:1019100083EB90E09F878E87198A188A84EB90E08A
:101920009B8B8A8B1D8A1C8A1F8A1E8A698360E0B2
:10193000CE010E94020CEA81FB81309709F01082EF
:10194000EC81FD811082198E188E1B8E1A8E1D8ED1
:101950001C8E1F8E1E8E19A218A2DF91CF910895A2
:1019600051E0411101C050E06530F0F4E62FF0E0A5
:10197000EA5BFE4F408147FD17C0DC011696ED91F2
:10198000FC911797808121E030E0042E01C0220FE6
:101990000A94EAF720952823852F042E01C0880F8A
:1019A0000A94EAF7282B20830895623099F028F4EE
:1019B000662341F06130C9F409C0633079F06430C6
:1019C000A1F410C0FC01518F408F0FC0FC01538F58
:1019D000428F0BC0FC01558F448F07C0FC01578F0D
:1019E000468F03C0FC0151A340A3452B11F440E0F6
:1019F00003C0222319F041E00C94B00C0895DC01DF
:101A00001896ED91FC9119973081262F23703C7F19
:101A1000232B20831A96ED91FC911B9780816C708B
:101A2000660F877E682B6083089560E081E794E00D
:101A30000E94210C61E08FE494E00E94210C62E09E
:101A40008DE294E00C94210CDB018F939F930E9414
:101A5000720DBF91AF91A29F800D911DA39F900D1C
:101A6000B29F900D11240895A1E21A2EAA1BBB1B50
:101A7000FD010DC0AA1FBB1FEE1FFF1FA217B3075A
:101A8000E407F50720F0A21BB30BE40BF50B661F70
:101A9000771F881F991F1A9469F760957095809534
:101AA00090959B01AC01BD01CF010895052E97FBD8
:101AB00016F4009407D057FD0DD00E94340D07FC9A
:101AC00009D07EF490958095709561957F4F8F4FEA
:101AD0009F4F089550954095309521953F4F4F4F1A
:101AE0005F4F08950E94830DA59F900DB49F900DA8
:101AF000A49F800D911D11240895EE0FFF1F0590E6
:101B0000F491E02D0994A29FB001B39FC001A39F5F
:101B100001D0B29F700D811D1124911D0895F8947C
:021B2000FFCFF5
:101B22000000930420000100000000000000930464
:101B32008F0400000000DC06C2098E069306B90677
:101B4200A70600000000B40634073A0700000000B0
:101B5200AF0628072E07010203040506070102004B
:0C1B620003000405060700010203050053
:00000001FF
