:100000000C9442000C946A000C946A000C946A00F0
:100010000C946A000C946A000C946A000C946A00B8
:100020000C946A000C943B0B0C94640B0C948D0B99
:100030000C94310C0C94B60B0C94DF0B0C94080C44
:100040000C94C00A0C94E90A0C94120B0C946A00EC
:100050000C94E5090C9498070C946A000C946A00BF
:100060000C946A000C946A000C946A000C946A0068
:100070000C94BA090C94E6070C946A00F301C705C6
:10008000100A6D0D11241FBECFEFD0E1DEBFCDBF32
:1000900011E0A0E0B1E0E2EDFBE102C005900D92BD
:1000A000AC34B107D9F714E0ACE4B1E001C01D9263
:1000B000A93AB107E1F710E0C4E8D0E004C0229704
:1000C000FE010E94D70DCC37D107C9F70E94DF0689
:1000D0000C94E70D0C940000EF920F931F93CF93B5
:1000E000DF93CDB7DEB728970FB6F894DEBF0FBE0B
:1000F000CDBF09831A832B833C834D835E836F833B
:100100007887FC0110821182128213821482158278
:100110001682178228E0FE013196DC0101900D92D3
:100120002A95E1F7FC01E0861186128628960FB623
:10013000F894DEBF0FBECDBFDF91CF911F910F911D
:10014000EF900895FC0180850895CF93DF93CDB79C
:10015000DEB728970FB6F894DEBF0FBECDBF28E0FC
:10016000FC01DE01119601900D922A95E1F729819B
:100170003A814B815C816D817E818F819885289643
:100180000FB6F894DEBF0FBECDBFDF91CF910895BB
:10019000CF92DF92EF920F93CF93DF93E12C01E0A8
:1001A00028E040E051EE60E070E087EE93E00E94CE
:1001B000B8088CE4C82E81E0D82E83E6F60180834F
:1001C000CDE4D1E0888342E0B60182E691E00E946E
:1001D0005E0628E040E051EE60E070E08BE893E0DE
:1001E0000E94B8086BE873E089EE91E00E94EA048F
:1001F0006EE471E08FE491E00E940C0561E08FE411
:1002000091E00E94100560E08FE491E00E940905F2
:1002100061E08FE491E00E94370584E6F601808377
:10022000888342E0B60182E691E0DF91CF910F91A1
:10023000EF90DF90CF900C945E0682E691E00C94F4
:10024000E7050F93CF93DF93CDB7DEB728970FB6AF
:10025000F894DEBF0FBECDBF29833A834B835C8306
:100260006D837E838F839887BE016F5F7F4F8FE49E
:1002700091E00E942E0500934E016FE471E089EE3B
:1002800091E00E94570528960FB6F894DEBF0FBE86
:10029000CDBFDF91CF910F9108959F92AF92BF9202
:1002A000CF92DF92EF92FF920F931F93CF93DF9342
:1002B000CDB7DEB760970FB6F894DEBF0FBECDBFE7
:1002C00082E691E00E945606823009F07AC060E032
:1002D00082E691E00E945906982E61E082E691E064
:1002E0000E945906682F70E080E090E01F921F92F4
:1002F0001F922FEF2F93A12CB12C65011FE7E12E48
:10030000F12C00E010E021E030E040E050E00E94FD
:10031000420AD62E0F900F900F900F90E12CF12CE7
:100320003BE0C32ECE9C8001CF9C100D11240959B7
:100330001D4FC8010E94A200891120C0C8010E945F
:10034000A50029873A874B875C876D877E878F87D3
:10035000988B88E0FE013996DE01119601900D928E
:100360008A95E1F70D2D29813A814B815C816D8160
:100370007E818F8198850E94210107C08FEFE81A46
:10038000F80A89E1E816F10469F690924C01D092DE
:100390004D0142E06CE471E082E691E060960FB6B8
:1003A000F894DEBF0FBECDBFDF91CF911F910F91AB
:1003B000FF90EF90DF90CF90BF90AF909F900C9404
:1003C0005E0660960FB6F894DEBF0FBECDBFDF911C
:1003D000CF911F910F91FF90EF90DF90CF90BF9042
:1003E000AF909F9008958F929F92AF92BF92EF929D
:1003F0000F931F93CF93DF93CDB7DEB728970FB638
:10040000F894DEBF0FBECDBF812C42EA942E43E1AB
:10041000A42EB12C082D89829A82AB82BC828CE5F5
:100420009CE6A6EEB0E4482F8D839E83AF83B88709
:1004300050E3E52E1A812B813C815E816F817885A6
:1004400087E692E00E946C0089829A82AB82BC822D
:100450008DE29CE6A6EEB0E4482F8D839E83AF83A9
:10046000B88761E3E62E1A812B813C815E816F8122
:10047000788582E792E00E946C0089829A82AB8242
:10048000BC828BEC9DE6A6EEB0E4482F8D839E8364
:10049000AF83B88772E3E72E1A812B813C815E819E
:1004A0006F8178858DE792E00E946C0089829A8244
:1004B000AB82BC8282E49CE6A6EEB0E4482F8D833A
:1004C0009E83AF83B887E3E3EE2E1A812B813C81B4
:1004D0005E816F81788588E892E00E946C00898255
:1004E0009A82AB82BC8281E29CE6A6EEB0E4482F01
:1004F0008D839E83AF83B887F4E3EF2E1A812B811F
:100500003C815E816F81788583E992E00E946C0076
:1005100089829A82AB82BC828DE19CE6A6EEB0E431
:10052000482F8D839E83AF83B887ACE3EA2E1A8170
:100530002B813C815E816F8178858EE992E00E94FB
:100540006C0089829A82AB82BC828CE39CE6A6EE28
:10055000B0E4482F8D839E83AF83B887BDE3EB2E35
:100560001A812B813C815E816F81788589EA92E0D6
:100570000E946C0089829A82AB82BC8284ED98E6EC
:10058000A6EEB0E4482F8D839E83AF83B8871EE329
:10059000E12E1A812B813C815E816F81788584EB0D
:1005A00092E00E946C0089829A82AB82BC828BE5C9
:1005B0009CE6A6EEB0E4482F8D839E83AF83B88778
:1005C0008FE3E82E1A812B813C815E816F817885D3
:1005D0008FEB92E00E946C0089829A82AB82BC828F
:1005E00086E49CE6A6EEB0E4482F8D839E83AF831D
:1005F000B88790E4E92E1A812B813C815E816F815E
:1006000078858AEC92E00E946C0089829A82AB82A3
:10061000BC8283E19CE6A6EEB0E4482F8D839E83E6
:10062000AF83B88728E4E22E1A812B813C815E815A
:100630006F81788585ED92E00E946C0089829A82B4
:10064000AB82BC8287ED9DE6A6EEB0E4482F8D8399
:100650009E83AF83B88739E4E32E1A812B813C81D6
:100660005E816F81788580EE92E00E946C008982C5
:100670009A82AB82BC8289E49CE6A6EEB0E4482F65
:100680008D839E83AF83B8875AE4E52E1A812B8130
:100690003C815E816F8178858BEE92E00E946C00D8
:1006A00089829A82AB82BC8288E19CE6A6EEB0E4A5
:1006B000482F8D839E83AF83B8876BE4E62E1A8123
:1006C0002B813C815E816F81788586EF92E00E946C
:1006D0006C0089829A82AB82BC828FE29CE6A6EE95
:1006E000B0E4482F8D839E83AF83B8877CE4E72EE8
:1006F0001A812B813C815E816F81788581E093E056
:100700000E946C0089829A82AB82BC8288E29CE65D
:10071000A6EEB0E4482F8D839E83AF83B887E4E5CF
:10072000EE2E1A812B813C815E816F8178858CE071
:1007300093E00E946C0089829A82AB82BC8285E53C
:100740009CE6A6EEB0E4482F8D839E83AF83B887E6
:10075000F5E5EF2E1A812B813C815E816F817885D2
:1007600087E193E00E946C0089829A82AB82BC820E
:100770008EE39CE6A6EEB0E4482F8D839E83AF8384
:10078000B887A6E5EA2E1A812B813C815E816F81B4
:10079000788582E293E00E946C0089829A82AB8223
:1007A000BC8282E19CE6A6EEB0E4482F8D839E8356
:1007B000AF83B887B7E5EB2E1A812B813C815E8130
:1007C0006F8178858DE293E00E946C0089829A8225
:1007D000AB82BC8288E49CE6A6EEB0E4482F8D8311
:1007E0009E83AF83B88718E5E12E1A812B813C8167
:1007F0005E816F81788588E393E00E946C00898236
:100800009A82AB82BC8280E59CE6A6EEB0E4482FDB
:100810008D839E83AF83B88780E6E82E1A812B8173
:100820003C815E816F81788583E493E00E946C0057
:1008300089829A82AB82BC8284E19CE6A6EEB0E417
:10084000482F8D839E83AF83B88791E6E92E1A8166
:100850002B813C815E816F8178858EE493E00E94DC
:100860006C0089829A82AB82BC828BE29CE6A6EE07
:10087000B0E4482F8D839E83AF83B88722E6E22EB3
:100880001A812B813C815E816F81788589E593E0B7
:100890000E946C0089829A82AB82BC828DE59CE6C4
:1008A000A6EEB0E4482F8D839E83AF83B88733E6EE
:1008B000E32E1A812B813C815E816F81788584E6ED
:1008C00093E00E946C0089829A82AB82BC8282E3B0
:1008D0009CE6A6EEB0E4482F8D839E83AF83B88755
:1008E00054E6E52E1A812B813C815E816F817885EB
:1008F0008FE693E00E946C0089EE91E00E94D8049C
:100900004DE451E067EE73E082E691E00E94DC0581
:100910008FE491E028960FB6F894DEBF0FBECDBFEE
:10092000DF91CF911F910F91EF90BF90AF909F906B
:100930008F900C941305FC018681845F0895FC015F
:10094000611102C082850895613011F48185089596
:10095000623011F480850895633011F48781089521
:10096000643011F486850895653011F48585089505
:10097000663011F484850895673011F483850895F5
:10098000683011F480890895693011F487850895DD
:100990006A3011F4818908956B3011F482890895C9
:1009A0000480F581E02DE60FF11D3C9780810895CC
:1009B000FC01128611861486158617821086158210
:1009C0000E9691838083E458FF4F87EE93E09183E6
:1009D0008083089584589F4FFC017183608308953C
:1009E00084589F4FDC018D919C91DC01ED91FC912D
:1009F0000284F385E02D099484589F4FFC01A08167
:100A0000B181ED91FC9111970190F081E02DCD0124
:100A10000994FC0163830895FC0175836483089540
:100A2000FC0166830895FC0180E1828381E0838379
:100A30001582148216828EE091E091838083178262
:100A400010861186128613861486158616868EEFFA
:100A50009FEF908B8787118A128A089528E0FB0107
:100A6000DC01179601900D922A95E1F70895FC019B
:100A7000628B08951F93CF93DF93EC01162F4423CD
:100A800079F0862F8D57823020F0613111F063317B
:100A900039F46DE7CE010E94FC0460E2612701C0D9
:100AA000612FCE01DF91CF911F910C94FC04DF9256
:100AB000EF92FF920F931F93CF93DF938C01EB0183
:100AC0006EE70E94FC04E881F9810280F381E02D49
:100AD000CE010995E82EE881F9810280F381E02DAD
:100AE000CE010995F82E2E2D30E02E5F3F4F41E0CC
:100AF000632FC8010E943A056F2D6E5F41E0C80167
:100B00000E943A0541E06A81C8010E943A0541E02D
:100B10006B81C8010E943A05DA808B81D80EE12CE6
:100B2000F12C19C0E881F9810190F081E02D6E2D42
:100B3000CE01099541E0682FC8010E943A05E8817D
:100B4000F9810190F081E02D6E2DCE010995D80E2E
:100B50008FEFE81AF80AE881F9810280F381E02D2D
:100B6000CE010995282F30E0E216F306DCF26D2D58
:100B7000609541E0C8010E943A05C801DF91CF911C
:100B80001F910F91FF90EF90DF900C94F004109262
:100B90007A0310927B0310927C0310927D038FEFF7
:100BA0009FEFA0E0B0E080937E0390937F03A0933B
:100BB0008003B09381030895FC01EB57FF4F7183CD
:100BC0006083FC01ED57FF4F518340830895BF922E
:100BD000CF92DF92EF92FF920F931F93CF93DF9309
:100BE000EC017C0185E8E80EF11C8E010E571F4FC9
:100BF000BB24B3946E01A3E8CA0ED11CF701808117
:100C00009181DC01ED91FC910480F581E02D099545
:100C1000892B09F441C0F70180819181DC01ED91BC
:100C2000FC910084F185E02D0995803C910579F4D3
:100C300088818983882331F0D601ED91FC9130972A
:100C400009F009951882F80110821982D7CF8B3DDF
:100C5000910519F4D801BC92D1CFF801208122234B
:100C600071F08C3D910521F08D3D910531F403C06B
:100C700080EC90E002C08BED90E0D8011C9298814E
:100C8000FE01E90FF11D8283892F8F5F803811F0FB
:100C90008883B4CF1882B2CFDF91CF911F910F918B
:100CA000FF90EF90DF90CF90BF900895FC0181817D
:100CB0000895860F911DFC0182810895EF92FF92A5
:100CC0000F931F93CF93DF93F62EE42E062F172F4B
:100CD000EC01CB57DF4F29C0F80161918F01A8814A
:100CE000B981ED91FC9111970190F081E02D603C6C
:100CF00069F46BEDCD010995A881B981ED91FC9165
:100D000011970190F081E02D6CED0DC0CD016B3D90
:100D100059F40995A881B981ED91FC911197019041
:100D2000F081E02D6DEDCD010995802F8F198E1585
:100D300098F2A881B981ED91FC9111970190F08111
:100D4000E02D60ECCD01DF91CF911F910F91FF90CD
:100D5000EF9009948091830390918403A09185037F
:100D6000B091860330918203232F2D5F2D3720F41D
:100D70000196A11DB11D05C0232F2A570296A11D62
:100D8000B11D209382038093830390938403A093E7
:100D90008503B09386038091870390918803A09187
:100DA0008903B0918A030196A11DB11D8093870329
:100DB00090938803A0938903B0938A0308950E94B7
:100DC000980A0E94C8000E941D01FDCFFC012089E5
:100DD0003189C9010895DC0150962D913C915197BC
:100DE000232B49F05496ED91FC915597E80FF91F8C
:100DF000268930E002C02FEF3FEFC9010895FC01C2
:100E0000118A108A158A148A138A128A0895FC019D
:100E100024813581C9010895FC0124813581C901EE
:100E20000895FC0180899189892BD1F03FB7F8940E
:100E3000808991890197918B808B84899589DF01C5
:100E4000A80FB91F56962C910196803291051CF47B
:100E5000958B848B02C0158A148A3FBF30E002C094
:100E60002FEF3FEFC9010895EF92FF921F93CF93A9
:100E7000DF931F92CDB7DEB77C01D701DA968D9153
:100E80009C91DB974097C8F71FB7F894D696ED91E1
:100E9000FC91D7970190F081E02DC701C696698338
:100EA000099569814097C8F4F70182AD93AD019629
:100EB00093AF82AF84AD95ADE80FF91FE05CFF4FB3
:100EC00060830196D701DD969C938E93DC974097C3
:100ED00024F0DD961C921E92DC97F701EA5AFF4F30
:100EE0000190F081E02D8081806280831FBF81E0CE
:100EF00090E00F90DF91CF911F91FF90EF900895B8
:100F0000665F7F4F680F791FCB010895665F7F4F43
:100F1000680F791FCB010895665F7F4F680F791FB7
:100F2000CB010895665F7F4F680F791FCB0108954D
:100F30001F920F920FB60F9211242F938F939F93AE
:100F4000AF93BF93EF93FF9380912104909122047C
:100F5000892B21F1E0914104F09142048091210418
:100F60009091220401979093220480932104809110
:100F7000250490912604DC01A35EBB4F1A962C91A8
:100F80000196803191052CF49093260480932504DA
:100F900004C010922604109225042083809121041D
:100FA00090912204892B31F4E0913D04F0913E04AC
:100FB00088E98083FF91EF91BF91AF919F918F91CD
:100FC0002F910F900FBE0F901F9018951F920F92A8
:100FD0000FB60F9211242F938F939F93AF93BF93CC
:100FE000EF93FF938091C5039091C603892B21F164
:100FF000E091E503F091E6038091C5039091C6036B
:1010000001979093C6038093C5038091C903909183
:10101000CA03DC01AF53BC4F1A962C910196803164
:1010200091052CF49093CA038093C90304C01092D5
:10103000CA031092C90320838091C5039091C6030F
:10104000892B31F4E091E103F091E20388E9808398
:10105000FF91EF91BF91AF919F918F912F910F9041
:101060000FBE0F901F901895FC01262F138212823D
:1010700048EE53E060E070E04483558366837783F5
:1010800086E191E09183808386E291E09587848771
:1010900080E290E097878687118A108A158A148AE1
:1010A000138A128A80E391E097AB86AB80E190E0EF
:1010B00091AF80AF13AE12AE17AE16AE15AE14AE32
:1010C000222321F0213009F052C028C0DF01A05BAB
:1010D000BF4F85EC90E08D939C93DF01AE5ABF4FDC
:1010E00084EC90E08D939C93DF01AC5ABF4F80EC71
:1010F00090E08D939C93DF01AA5ABF4F81EC90E062
:101100008D939C93DF01A85ABF4F82EC90E08D93A2
:101110009C93E65AFF4F86EC90E027C0DF01A05B6E
:10112000BF4F8DEC90E08D939C93DF01AE5ABF4F83
:101130008CEC90E08D939C93DF01AC5ABF4F88EC10
:1011400090E08D939C93DF01AA5ABF4F89EC90E009
:101150008D939C93DF01A85ABF4F8AEC90E08D934A
:101160009C93E65AFF4F8EEC90E091838083089524
:101170003F924F925F926F927F928F929F92AF9227
:10118000BF92CF92DF92EF92FF920F931F93CF9374
:10119000DF93EC014A015B01122F3E2C60E072E10B
:1011A0008AE790E0A50194010E948C0D69017A0103
:1011B00084E0C80ED11CE11CF11C83E0F694E79496
:1011C000D794C7948A95D1F760E074E284EF90E0F9
:1011D000A50194010E948C0D29013A0194E0490E69
:1011E000511C611C711C93E076946794579447944A
:1011F0009A95D1F7A30192014427552760E874E836
:101200008EE190E00E94AE0D5901A818B908B7FE12
:1012100003C0B194A194B108A701960144275527B2
:1012200060E472E48FE090E00E94AE0D2819390965
:1012300037FF03C0319521953109FE01EC5AFF4F6C
:101240000190F081E02DA216B3063CF482E0808389
:10125000620181E0C81AD10804C0108291E0C91A65
:10126000D1081630C1F018F4153099F405C01730C4
:1012700029F0193071F404C080E00EC084E00CC085
:10128000FE01EA5AFF4F0190F081E02D80818460D9
:10129000808386E001C082E0023009F4886091E03A
:1012A000391621F092E0391204C002C0806301C0F7
:1012B0008062FE01E85AFF4F0190F081E02D8083AB
:1012C000FE01E05BFF4F0190F081E02DD082FE0136
:1012D000EE5AFF4F0190F081E02DC082CA5ADF4FD5
:1012E000E881F98188E98083DF91CF911F910F9187
:1012F000FF90EF90DF90CF90BF90AF909F908F9036
:101300007F906F905F904F903F9008950F931F9341
:10131000CF93DF931F92CDB7DEB78C01DC01ED9147
:10132000FC910190F081E02D698309956981809796
:10133000D0F4F80184819581019695838483868118
:101340009781E80FF91F628701968032910534F486
:10135000D80117969C938E93169703C0F8011782B5
:10136000168281E001C080E00F90DF91CF911F9144
:101370000F9108951F920F920FB60F9211242F9381
:101380003F934F935F936F937F938F939F93AF930D
:10139000BF93EF93FF93E091E503F091E603608143
:1013A00087E993E00E948609FF91EF91BF91AF9189
:1013B0009F918F917F916F915F914F913F912F916D
:1013C0000F900FBE0F901F9018951F920F920FB69F
:1013D0000F9211242F933F934F935F936F937F93BB
:1013E0008F939F93AF93BF93EF93FF93E09141044B
:1013F000F0914204608183EF93E00E948609FF919F
:10140000EF91BF91AF919F918F917F916F915F917C
:101410004F913F912F910F900FBE0F901F901895F5
:1014200060E087EE93E00E94340861E08BE893E08F
:101430000C943408CF92DF92EF92FF920F931F9398
:10144000CF93DF936C01EB017A01E60EF71E00E00B
:1014500010E00BC06991D601ED91FC910190F081F3
:10146000E02DC6010995080F191FCE15DF0591F76C
:10147000C801DF91CF911F910F91FF90EF90DF9006
:10148000CF9008954F925F926F927F92AF92BF92EA
:10149000CF92DF92EF92FF920F931F93CF93DF9340
:1014A00000D000D0CDB7DEB72B013C0129833A83B1
:1014B0004B835C836D897E898F89988D421A530A8C
:1014C000640A750A6A197B098C099D096F5F7F4F51
:1014D0008F4F9F4FA30192010E947C0D29813A8179
:1014E0004B815C81E21AF30A040B150B3FEFE31A00
:1014F000F30A0F4F1F4FA80197010E94AE0D2A0D4E
:101500003B1D4C1D5D1DB901CA010F900F900F903E
:101510000F90DF91CF911F910F91FF90EF90DF908F
:10152000CF90BF90AF907F906F905F904F90089555
:1015300063E087E894E00E94570D21E04AEA56E014
:1015400060E087E894E00E942D0D64E087E894E075
:101550000E945A0C61E085E694E00E94570D64E019
:1015600085E694E00E945A0C61E083E494E00E94D6
:10157000570D64E083E494E00E945A0C7894089537
:101580001F920F920FB60F9211242F933F934F93F8
:101590005F936F937F938F939F93AF93BF93EF93DB
:1015A000FF93E091A104F091A204309709F009950E
:1015B000FF91EF91BF91AF919F918F917F916F912B
:1015C0005F914F913F912F910F900FBE0F901F9001
:1015D00018951F920F920FB60F9211242F933F93DD
:1015E0004F935F936F937F938F939F93AF93BF932B
:1015F000EF93FF93E091A304F091A404309709F0D6
:101600000995FF91EF91BF91AF919F918F917F913C
:101610006F915F914F913F912F910F900FBE0F905F
:101620001F9018951F920F920FB60F9211242F93AF
:101630003F934F935F936F937F938F939F93AF935A
:10164000BF93EF93FF93E0919F04F091A004309734
:1016500009F00995FF91EF91BF91AF919F918F9103
:101660007F916F915F914F913F912F910F900FBE9E
:101670000F901F9018951F920F920FB60F92112482
:101680002F933F934F935F936F937F938F939F938A
:10169000AF93BF93EF93FF93E0915D04F0915E04ED
:1016A000309709F00995FF91EF91BF91AF919F910C
:1016B0008F917F916F915F914F913F912F910F90FB
:1016C0000FBE0F901F9018951F920F920FB60F929A
:1016D00011242F933F934F935F936F937F938F9337
:1016E0009F93AF93BF93EF93FF93E0915F04F091CB
:1016F0006004309709F00995FF91EF91BF91AF9188
:101700009F918F917F916F915F914F913F912F9119
:101710000F900FBE0F901F9018951F920F920FB64B
:101720000F9211242F933F934F935F936F937F9367
:101730008F939F93AF93BF93EF93FF93E0915B04DD
:10174000F0915C04309709F00995FF91EF91BF91FA
:10175000AF919F918F917F916F915F914F913F9149
:101760002F910F900FBE0F901F9018951F920F9200
:101770000FB60F9211242F933F934F935F936F9364
:101780007F938F939F93AF93BF93EF93FF93E091DA
:101790007F04F0918004309709F00995FF91EF9153
:1017A000BF91AF919F918F917F916F915F914F9179
:1017B0003F912F910F900FBE0F901F9018951F9281
:1017C0000F920FB60F9211242F933F934F935F9375
:1017D0006F937F938F939F93AF93BF93EF93FF93F9
:1017E000E0918104F0918204309709F00995FF910E
:1017F000EF91BF91AF919F918F917F916F915F9189
:101800004F913F912F910F900FBE0F901F90189501
:101810001F920F920FB60F9211242F933F934F9365
:101820005F936F937F938F939F93AF93BF93EF9348
:10183000FF93E0917D04F0917E04309709F00995C3
:10184000FF91EF91BF91AF919F918F917F916F9198
:101850005F914F913F912F910F900FBE0F901F906E
:1018600018951F920F920FB60F9211242F933F934A
:101870004F935F936F937F938F939F93AF93BF9398
:10188000EF93FF93E0918504F0918604309709F07F
:101890000995FF91EF91BF91AF919F918F917F91AA
:1018A0006F915F914F913F912F910F900FBE0F90CD
:1018B0001F901895DC012C916150223039F467306B
:1018C00068F4E62FF0E0EA5CFE4F06C0693030F4C1
:1018D000E62FF0E0E35CFE4F208101C020E0DC0158
:1018E0001A96ED91FC911B978081887F822B8083D3
:1018F0000895CF93DF93EC016883613011F120F0FC
:10190000623009F06CC048C01B821A8286E490E005
:101910009D838C838EE690E09F838E8384E490E0A9
:101920009987888785E490E09B878A871D861C8637
:1019300087E490E09F878E87198A188A88E490E070
:1019400022C08FE690E09F838E8385E890E09B83A2
:101950008A8384E890E09D838C8380E890E0998777
:10196000888781E890E09B878A8789E890E09D8757
:101970008C8788E890E09F878E878BE890E0998B32
:10198000888B8AE890E09B8B8A8B1D8A1C8A1F8A31
:101990001E8A82E0898323C01B821A8282EB90E038
:1019A0009D838C8380E790E09F838E8380EB90E023
:1019B0009987888781EB90E09B878A871D861C86A4
:1019C00083EB90E09F878E87198A188A84EB90E0DA
:1019D0009B8B8A8B1D8A1C8A1F8A1E8A698360E002
:1019E000CE010E945A0CEA81FB81309709F01082E7
:1019F000EC81FD811082198E188E1B8E1A8E1D8E21
:101A00001C8E1F8E1E8E19A218A2DF91CF910895F1
:101A100051E0411101C050E06530F0F4E62FF0E0F4
:101A2000EA5BFE4F408147FD17C0DC011696ED9141
:101A3000FC911797808121E030E0042E01C0220F35
:101A40000A94EAF720952823852F042E01C0880FD9
:101A50000A94EAF7282B20830895623099F028F43D
:101A6000662341F06130C9F409C0633079F0643015
:101A7000A1F410C0FC01518F408F0FC0FC01538FA7
:101A8000428F0BC0FC01558F448F07C0FC01578F5C
:101A9000468F03C0FC0151A340A3452B11F440E045
:101AA00003C0222319F041E00C94080D0895DC01D5
:101AB0001896ED91FC9119973081262F23703C7F69
:101AC000232B20831A96ED91FC911B9780816C70DB
:101AD000660F877E682B6083089560E087E894E056
:101AE0000E94790C61E085E694E00E94790C62E046
:101AF00083E494E00C94790CDB018F939F930E9414
:101B0000CA0DBF91AF91A29F800D911DA39F900D13
:101B1000B29F900D11240895A1E21A2EAA1BBB1B9F
:101B2000FD010DC0AA1FBB1FEE1FFF1FA217B307A9
:101B3000E407F50720F0A21BB30BE40BF50B661FBF
:101B4000771F881F991F1A9469F760957095809583
:101B500090959B01AC01BD01CF010895052E97FB27
:101B600016F4009407D057FD0DD00E948C0D07FC91
:101B700009D07EF490958095709561957F4F8F4F39
:101B80009F4F089550954095309521953F4F4F4F69
:101B90005F4F08950E94DB0DA59F900DB49F900D9F
:101BA000A49F800D911D11240895EE0FFF1F059035
:101BB000F491E02D0994A29FB001B39FC001A39FAF
:101BC00001D0B29F700D811D1124911D0895F894CC
:021BD000FFCF45
:101BD2000000A904200001000000000000009F0492
:101BE2009B040000000034071A0AE606EB06110700
:101BF200FF06000000000C078C079207000000009F
:101C02000707800786070102030405060701020091
:0C1C1200030004050607000102030500A2
:00000001FF
