:100000000C943F000C9467000C9467000C946700FC
:100010000C9467000C9467000C9467000C946700C4
:100020000C9467000C942E020C9457020C948002DE
:100030000C9424030C94A9020C94D2020C94FB029D
:100040000C94B3010C94DC010C9405020C94670031
:100050000C9467000C9467000C9467000C94670084
:100060000C9467000C9467000C9467000C94670074
:100070000C9467000C9467000C94670060041124D2
:100080001FBECFEFD0E1DEBFCDBF11E0A0E0B1E0F9
:10009000E4E6FAE002C005900D92AC31B107D9F761
:1000A00011E0ACE1B1E001C01D92AB38B107E1F75E
:1000B00010E0CEE7D0E004C02297FE010E94BA040F
:1000C000CC37D107C9F70E943A010C9430050C9443
:1000D0000000549A0895CF93DF9380E00E94A1001E
:1000E0008139910524F55C9A6AE070E080E090E047
:1000F0000E9418015C9880E00E94A100EC0180E061
:100100000E94A100BC018AE08C9F90018D9F300D60
:100110001124442737FD4095542F882777FD80957B
:10012000982F0E946D01DF91CF910C941801DF91FF
:10013000CF91089580E480937C0087E880937A00D3
:100140000895CF93DF931F92CDB7DEB7909104014E
:10015000913031F489830E949A00109204018981C0
:1001600087702091050140E4249F90011124822B87
:1001700080937C0080917A00806480937A008091E3
:100180007A0086FDFCCF2091780030917900932F82
:1001900080E0FC01E22B9F01C9010F90DF91CF911C
:1001A000089580911D0190911E01A0911F01B091B1
:1001B000200130911C01232F2D5F2D3720F4019653
:1001C000A11DB11D05C0232F2A570296A11DB11DE7
:1001D00020931C0180931D0190931E01A0931F0189
:1001E000B09320018091210190912201A0912301DF
:1001F000B09124010196A11DB11D8093210190931E
:100200002201A0932301B093240108950F931F931B
:100210008FB7F89400911D0110911E0120911F01CC
:10022000309120018FBFB801C9011F910F9108952E
:100230008F929F92AF92BF92CF92DF92EF92FF92F6
:100240006B017C010E9406014B015C010E940601CA
:10025000681979098A099B096C157D058E059F052A
:10026000A8F3FF90EF90DF90CF90BF90AF909F905A
:100270008F9008950E948B010E9469000E946B007C
:10028000FDCF0F931F93CF93DF9300D000D0CDB756
:10029000DEB79B01AC01611571058105910579F00F
:1002A00069833A834B835C830E941A0529813A81D2
:1002B0004B815C810E946F048B019C0103C000E0B4
:1002C00010E09801B801C9010F900F900F900F90A6
:1002D000DF91CF911F910F910895CF92DF92EF920E
:1002E000FF926B017C01621773078407950764F422
:1002F000CA01B9016C197D098E099F090E9441014B
:10030000C60ED71EE81EF91EB601C701FF90EF907A
:10031000DF90CF90089563E089E691E00E944A045F
:1003200021E041ED50E060E089E691E00E94200488
:1003300064E089E691E00E944D0361E087E491E08A
:100340000E944A0464E087E491E00E944D0361E06A
:1003500085E291E00E944A0464E085E291E00E9417
:100360004D03789408951F920F920FB60F921124A7
:100370002F933F934F935F936F937F938F939F93AD
:10038000AF93BF93EF93FF93E0918301F0918401CA
:10039000309709F00995FF91EF91BF91AF919F912F
:1003A0008F917F916F915F914F913F912F910F901E
:1003B0000FBE0F901F9018951F920F920FB60F92BD
:1003C00011242F933F934F935F936F937F938F935A
:1003D0009F93AF93BF93EF93FF93E0918501F091CB
:1003E0008601309709F00995FF91EF91BF91AF9188
:1003F0009F918F917F916F915F914F913F912F913D
:100400000F900FBE0F901F9018951F920F920FB66E
:100410000F9211242F933F934F935F936F937F938A
:100420008F939F93AF93BF93EF93FF93E0918101DD
:10043000F0918201309709F00995FF91EF91BF91FA
:10044000AF919F918F917F916F915F914F913F916C
:100450002F910F900FBE0F901F9018951F920F9223
:100460000FB60F9211242F933F934F935F936F9387
:100470007F938F939F93AF93BF93EF93FF93E091FD
:100480003F01F0914001309709F00995FF91EF91FC
:10049000BF91AF919F918F917F916F915F914F919C
:1004A0003F912F910F900FBE0F901F9018951F92A4
:1004B0000F920FB60F9211242F933F934F935F9398
:1004C0006F937F938F939F93AF93BF93EF93FF931C
:1004D000E0914101F0914201309709F00995FF91B7
:1004E000EF91BF91AF919F918F917F916F915F91AC
:1004F0004F913F912F910F900FBE0F901F90189525
:100500001F920F920FB60F9211242F933F934F9388
:100510005F936F937F938F939F93AF93BF93EF936B
:10052000FF93E0913D01F0913E01309709F009956C
:10053000FF91EF91BF91AF919F918F917F916F91BB
:100540005F914F913F912F910F900FBE0F901F9091
:1005500018951F920F920FB60F9211242F933F936D
:100560004F935F936F937F938F939F93AF93BF93BB
:10057000EF93FF93E0916101F0916201309709F0F0
:100580000995FF91EF91BF91AF919F918F917F91CD
:100590006F915F914F913F912F910F900FBE0F90F0
:1005A0001F9018951F920F920FB60F9211242F9340
:1005B0003F934F935F936F937F938F939F93AF93EB
:1005C000BF93EF93FF93E0916301F0916401309743
:1005D00009F00995FF91EF91BF91AF919F918F9194
:1005E0007F916F915F914F913F912F910F900FBE2F
:1005F0000F901F9018951F920F920FB60F92112413
:100600002F933F934F935F936F937F938F939F931A
:10061000AF93BF93EF93FF93E0915F01F09160017F
:10062000309709F00995FF91EF91BF91AF919F919C
:100630008F917F916F915F914F913F912F910F908B
:100640000FBE0F901F9018951F920F920FB60F922A
:1006500011242F933F934F935F936F937F938F93C7
:100660009F93AF93BF93EF93FF93E0916701F09156
:100670006801309709F00995FF91EF91BF91AF9113
:100680009F918F917F916F915F914F913F912F91AA
:100690000F900FBE0F901F901895DC012C916150A8
:1006A000223039F4673068F4E62FF0E0EA5FFE4F5D
:1006B00006C0693030F4E62FF0E0E35FFE4F2081A2
:1006C00001C020E0DC011A96ED91FC911B9780811E
:1006D000887F822B80830895CF93DF93EC0168831A
:1006E000613011F120F0623009F06CC048C01B820B
:1006F0001A8286E490E09D838C838EE690E09F834F
:100700008E8384E490E09987888785E490E09B87D6
:100710008A871D861C8687E490E09F878E87198ACA
:10072000188A88E490E022C08FE690E09F838E8351
:1007300085E890E09B838A8384E890E09D838C83A6
:1007400080E890E09987888781E890E09B878A8796
:1007500089E890E09D878C8788E890E09F878E8766
:100760008BE890E0998B888B8AE890E09B8B8A8B52
:100770001D8A1C8A1F8A1E8A82E0898323C01B82ED
:100780001A8282EB90E09D838C8380E790E09F83C8
:100790008E8380EB90E09987888781EB90E09B8740
:1007A0008A871D861C8683EB90E09F878E87198A37
:1007B000188A84EB90E09B8B8A8B1D8A1C8A1F8A87
:1007C0001E8A698360E0CE010E944D03EA81FB81AD
:1007D000309709F01082EC81FD811082198E188EFD
:1007E0001B8E1A8E1D8E1C8E1F8E1E8E19A218A295
:1007F000DF91CF91089551E0411101C050E0653083
:10080000F0F4E62FF0E0EA5EFE4F408147FD17C0AE
:10081000DC011696ED91FC911797808121E030E084
:10082000042E01C0220F0A94EAF720952823852F71
:10083000042E01C0880F0A94EAF7282B208308951C
:10084000623099F028F4662341F06130C9F409C0A0
:10085000633079F06430A1F410C0FC01518F408FF7
:100860000FC0FC01538F428F0BC0FC01558F448F8A
:1008700007C0FC01578F468F03C0FC0151A340A362
:10088000452B11F440E003C0222319F041E00C9401
:10089000FB030895DC011896ED91FC9119973081C6
:1008A000262F23703C7F232B20831A96ED91FC91F9
:1008B0001B9780816C70660F877E682B608308951C
:1008C00060E089E691E00E946C0361E087E491E0DA
:1008D0000E946C0362E085E291E00C946C03052EAB
:1008E00097FB16F4009407D057FD0DD00E94960494
:1008F00007FC09D07EF490958095709561957F4FA7
:100900008F4F9F4F089550954095309521953F4FBB
:100910004F4F5F4F08950E94BE04A59F900DB49F56
:10092000900DA49F800D911D11240895A1E21A2E0F
:10093000AA1BBB1BFD010DC0AA1FBB1FEE1FFF1F83
:10094000A217B307E407F50720F0A21BB30BE40BD3
:10095000F50B661F771F881F991F1A9469F760951A
:100960007095809590959B01AC01BD01CF010895D4
:10097000EE0FFF1F0590F491E02D0994A29FB001A6
:10098000B39FC001A39F01D0B29F700D811D1124A0
:10099000911D08958F929F92AF92BF92CF92DF9256
:1009A000EF92FF92CF93DF93EC01688179818A8186
:1009B0009B81611571058105910521F464E279ED52
:1009C0008BE597E02DE133EF41E050E00E946F04AA
:1009D00049015A019B01AC01A7EAB1E40E948B04D2
:1009E0006B017C01ACEEB4EFA50194010E942B05D4
:1009F000C60ED71EE81EF91EF7FE06C081E0C81A13
:100A0000D108E10880E8F80AC882D982EA82FB822C
:100A1000E894F7F8B601C701DF91CF91FF90EF900E
:100A2000DF90CF90BF90AF909F908F9008950E94DD
:100A3000CA04089580E091E00E94CA04089560937A
:100A400000017093010180930201909303010895C6
:100A5000B7FF0C948B040E948B04821B930B0895A8
:040A6000F894FFCF38
:100A64000100000001010102030405060701020060
:0C0A740003000405060700010203050052
:00000001FF
