:100000000C9442000C946A000C946A000C946A00F0
:100010000C946A000C946A000C946A000C946A00B8
:100020000C946A000C94AA080C94D3080C94FC0855
:100030000C94A0090C9425090C944E090C94770992
:100040000C942F080C9458080C9481080C946A00A6
:100050000C94F5060C94A8040C946A000C946A00A5
:100060000C946A000C946A000C946A000C946A0068
:100070000C94CA060C94F6040C946A0057011503FC
:100080002007DC0A11241FBECFEFD0E1DEBFCDBFB9
:1000900011E0A0E0B1E0E2E6F6E102C005900D92C9
:1000A000AE34B107D9F713E0AEE4B1E001C01D9260
:1000B000A032B107E1F710E0C4E8D0E004C0229715
:1000C000FE010E942B0BCC37D107C9F70E94EF032A
:1000D0000C942F0B0C940000BF92CF92DF92EF9202
:1000E000FF920F931F93CF93DF93B82E8B01C0E045
:1000F000D0E06A01EE24D7FCE094FE2C14C061E04D
:100100008B2D0E94C103C701B6010E94710360E0FC
:100110008B2D0E94C1032196C017D10724F4C7017B
:10012000B6010E947103C017D1074CF3DF91CF9144
:100130001F910F91FF90EF90DF90CF90BF900895A7
:10014000EF920F9361E080910A010E94930361E0B6
:10015000809108010E94930361E0809106010E9452
:100160009303E12C01E028E040E051EE60E070E014
:100170008EE592E00E94C80528E040E855E260E084
:1001800070E082E092E00E94C80562E072E083E7DE
:1001900091E00E945F0242E350E063E070E08091F2
:1001A0000A0190910B010F91EF900C946C0083E782
:1001B00091E00E94850283E791E00E9484020E9400
:1001C0007D01882309F46DC083E791E00E948402D9
:1001D0000E947A01803971F583E791E00E948402E0
:1001E00069E571E00E94BB0187E591E00E94B401DE
:1001F000813049F44AE050E06AE070E080910A0101
:1002000090910B0108C044E150E062E070E0809101
:100210000801909109010E946C0060E070E087E5A0
:1002200091E00E9415024AE050E0682F8EE592E0CE
:100230000C94EE0783E791E00E9484020E947A0109
:100240008A3851F583E791E00E9484026EE471E000
:100250000E9436028EE491E00E943102823029F43D
:100260004AE050E06AE070E012C08EE491E00E9443
:1002700031024AE050E0833041F46AE070E080915E
:100280000801909109010C946C0065E070E0809188
:100290000A0190910B01F7CF49E150E061E070E075
:1002A000EECF83E791E00E9484020C94800183E703
:1002B00091E00E944D028AE691E00E94790187E573
:1002C00091E00E94A6018EE491E00C9430028BE054
:1002D0000895CF93DC011696CC911697ED91FC9181
:1002E0000280F381E02D0995C150C81B8C2FCF915E
:1002F00008950895FC0182810895FC018781089585
:1003000021E0FC018085811101C020E0822F089549
:10031000FC01DB01828112968C93129787811796DC
:100320008C931797858115968C93159780851896D1
:100330008C931897868116968C93169783811396C3
:100340008C931397848114968C930895FC0180E11B
:1003500091E091838083138614861586168617860E
:10036000108A118A128A0895DC011296ED91FC918F
:100370001397828508950F931F93CF93DF938C017A
:10038000EB01DC018D919C9199838883C8010E94C7
:100390008801D801ED91FC91808190E0A0E0B0E06F
:1003A000B82FAA2799278827418150E060E070E0A4
:1003B000BA0155274427840F951FA61FB71F238115
:1003C000820F911DA11DB11D328120E0820F931F6C
:1003D000A11DB11D89879A87AB87BC87848190E076
:1003E000A0E0B0E0B82FAA2799278827458150E0E0
:1003F00060E070E0BA0155274427840F951FA61FBF
:10040000B71F2781820F911DA11DB11D368120E0EC
:10041000820F931FA11DB11D8D879E87AF87B88B5B
:10042000DF91CF911F910F9108950F931F93CF9359
:10043000DF93EB01DC0112960D911C911397ED9166
:10044000FC910280F381E02D0995F801EC0FFD1F6E
:10045000E80FF11D8081DF91CF911F910F910895D9
:100460000895DC01ED91FC9180810895FC012081CB
:100470003181FB01318320830C948801FC011782B8
:100480001086158212821382148216820895FC014E
:100490001286118614860C943E02FC011286118687
:1004A000148615861782108615820E969183808396
:1004B000E458FF4F8EE592E091838083089584583D
:1004C0009F4FFC0171836083089584589F4FDC0126
:1004D0008D919C91DC01ED91FC910480F581E02DE2
:1004E000099521E0892B09F420E0822F0895845892
:1004F0009F4FDC018D919C91DC01ED91FC9100847A
:10050000F185E02D099508950895DF92EF92FF920D
:100510000F931F93CF93DF93EC018F81811179C0EB
:100520008885811176C002E0F02E11E083E0E82E8C
:1005300094E0D92E00E2CE010E946502882309F4DE
:100540006CC0CE010E9477028B879A85992399F01F
:100550008E3711F483E039C08D3769F4CE010E94E3
:100560006502882331F0CE010E94770280278B87B5
:1005700002C01987E0CF8985882321F08B858027E9
:100580008B8719864A85433020F08C859B85890F9F
:100590008C87413059F028F0423061F0433091F4BB
:1005A0000DC08B858E3739F61A87C5CF8B858B8327
:1005B000FA86C1CF8B858C83EA86BDCF8B858A83F3
:1005C000DA86B9CF4F3618F082E0888726C0242F0C
:1005D00030E08C8190E003962817390779F48C85F8
:1005E0008F3F31F48B858D8381E08F83188602C025
:1005F00081E0888744504E831A860FC08B85E8813E
:10060000F981E20FF31F349780838A858F5F8A8791
:1006100092CFCE010E94470286CFDF91CF911F91EA
:100620000F91FF90EF90DF9008951092F1011092DA
:10063000F2011092F3011092F4018FEF9FEFA0E00E
:10064000B0E08093F5019093F601A093F701B09389
:10065000F80108958091FA019091FB01A091FC01AD
:10066000B091FD013091F901232F2D5F2D3720F43A
:100670000196A11DB11D05C0232F2A570296A11D69
:10068000B11D2093F9018093FA019093FB01A0938F
:10069000FC01B093FD018091FE019091FF01A091BA
:1006A0000002B09101020196A11DB11D8093FE01CF
:1006B0009093FF01A0930002B093010208950F935D
:1006C0001F938FB7F8940091FA011091FB012091CC
:1006D000FC013091FD018FBFB801C9011F910F913D
:1006E00008958F929F92AF92BF92CF92DF92EF9236
:1006F000FF926B017C010E945F034B015C010E9431
:100700005F03681979098A099B096C157D058E05B7
:100710009F05A8F3FF90EF90DF90CF90BF90AF9030
:100720009F908F900895982F977021E030E0092EC8
:1007300001C0220F0A94EAF786958695869581F086
:10074000813089F0823091F08330D1F412C0808101
:100750002095822302C08081822B80839FBF0895D1
:10076000EAE2F0E008C0E7E2F0E005C0E4E2F0E031
:1007700002C0E1E2F0E09FB7F894662341F3EBCFCB
:100780000895982F977021E030E0092E01C0220FC4
:100790000A94EAF786958695869581F0813089F0EE
:1007A000823091F08330D1F412C080812095822371
:1007B00002C08081822B80839FBF0895EBE2F0E02E
:1007C00008C0E8E2F0E005C0E5E2F0E002C0E2E2E5
:1007D000F0E09FB7F894662341F3EBCF08950E94B1
:1007E00007080E94A0000E94D700FDCFFC012089CD
:1007F0003189C9010895DC0150962D913C915197A2
:10080000232B49F05496ED91FC915597E80FF91F71
:10081000268930E002C02FEF3FEFC9010895FC01A7
:10082000118A108A158A148A138A128A0895FC0183
:1008300024813581C9010895FC0124813581C901D4
:100840000895FC0180899189892BD1F03FB7F894F4
:10085000808991890197918B808B84899589DF01AB
:10086000A80FB91F56962C910196803291051CF461
:10087000958B848B02C0158A148A3FBF30E002C07A
:100880002FEF3FEFC9010895EF92FF921F93CF938F
:10089000DF931F92CDB7DEB77C01D701DA968D9139
:1008A0009C91DB974097C8F71FB7F894D696ED91C7
:1008B000FC91D7970190F081E02DC701C69669831E
:1008C000099569814097C8F4F70182AD93AD01960F
:1008D00093AF82AF84AD95ADE80FF91FE05CFF4F99
:1008E00060830196D701DD969C938E93DC974097A9
:1008F00024F0DD961C921E92DC97F701EA5AFF4F16
:100900000190F081E02D8081806280831FBF81E0B3
:1009100090E00F90DF91CF911F91FF90EF9008959D
:10092000665F7F4F680F791FCB010895665F7F4F29
:10093000680F791FCB010895665F7F4F680F791F9D
:10094000CB010895665F7F4F680F791FCB01089533
:100950001F920F920FB60F9211242F938F939F9394
:10096000AF93BF93EF93FF93809198029091990278
:10097000892B21F1E091B802F091B902809198029F
:100980009091990201979093990280939802809197
:100990009C0290919D02DC01AC56BD4F1A962C91A1
:1009A0000196803191052CF490939D0280939C02D6
:1009B00004C010929D0210929C02208380919802A4
:1009C00090919902892B31F4E091B402F091B50233
:1009D00088E98083FF91EF91BF91AF919F918F91B3
:1009E0002F910F900FBE0F901F9018951F920F928E
:1009F0000FB60F9211242F938F939F93AF93BF93B2
:100A0000EF93FF9380913C0290913D02892B21F15D
:100A1000E0915C02F0915D0280913C0290913D0278
:100A2000019790933D0280933C0280914002909107
:100A30004102DC01A85CBD4F1A962C9101968031D1
:100A400091052CF4909341028093400204C01092CF
:100A5000410210924002208380913C0290913D021D
:100A6000892B31F4E0915802F091590288E9808392
:100A7000FF91EF91BF91AF919F918F912F910F9027
:100A80000FBE0F901F901895FC01262F1382128223
:100A900048EE53E060E070E04483558366837783DB
:100AA00088E191E09183808388E291E09587848753
:100AB00080E290E097878687118A108A158A148AC7
:100AC000138A128A82E391E097AB86AB80E190E0D3
:100AD00091AF80AF13AE12AE17AE16AE15AE14AE18
:100AE000222321F0213009F052C028C0DF01A05B91
:100AF000BF4F85EC90E08D939C93DF01AE5ABF4FC2
:100B000084EC90E08D939C93DF01AC5ABF4F80EC56
:100B100090E08D939C93DF01AA5ABF4F81EC90E047
:100B20008D939C93DF01A85ABF4F82EC90E08D9388
:100B30009C93E65AFF4F86EC90E027C0DF01A05B54
:100B4000BF4F8DEC90E08D939C93DF01AE5ABF4F69
:100B50008CEC90E08D939C93DF01AC5ABF4F88ECF6
:100B600090E08D939C93DF01AA5ABF4F89EC90E0EF
:100B70008D939C93DF01A85ABF4F8AEC90E08D9330
:100B80009C93E65AFF4F8EEC90E09183808308950A
:100B90003F924F925F926F927F928F929F92AF920D
:100BA000BF92CF92DF92EF92FF920F931F93CF935A
:100BB000DF93EC014A015B01122F3E2C60E072E1F1
:100BC0008AE790E0A50194010E94EB0A69017A018D
:100BD00084E0C80ED11CE11CF11C83E0F694E7947C
:100BE000D794C7948A95D1F760E074E284EF90E0DF
:100BF000A50194010E94EB0A29013A0194E0490EF3
:100C0000511C611C711C93E076946794579447942F
:100C10009A95D1F7A30192014427552760E874E81B
:100C20008EE190E00E940D0B5901A818B908B7FE9B
:100C300003C0B194A194B108A70196014427552798
:100C400060E472E48FE090E00E940D0B28193909EE
:100C500037FF03C0319521953109FE01EC5AFF4F52
:100C60000190F081E02DA216B3063CF482E080836F
:100C7000620181E0C81AD10804C0108291E0C91A4B
:100C8000D1081630C1F018F4153099F405C01730AA
:100C900029F0193071F404C080E00EC084E00CC06B
:100CA000FE01EA5AFF4F0190F081E02D80818460BF
:100CB000808386E001C082E0023009F4886091E020
:100CC000391621F092E0391204C002C0806301C0DD
:100CD0008062FE01E85AFF4F0190F081E02D808391
:100CE000FE01E05BFF4F0190F081E02DD082FE011C
:100CF000EE5AFF4F0190F081E02DC082CA5ADF4FBB
:100D0000E881F98188E98083DF91CF911F910F916C
:100D1000FF90EF90DF90CF90BF90AF909F908F901B
:100D20007F906F905F904F903F9008950F931F9327
:100D3000CF93DF931F92CDB7DEB78C01DC01ED912D
:100D4000FC910190F081E02D69830995698180977C
:100D5000D0F4F801848195810196958384838681FE
:100D60009781E80FF91F628701968032910534F46C
:100D7000D80117969C938E93169703C0F80117829B
:100D8000168281E001C080E00F90DF91CF911F912A
:100D90000F9108951F920F920FB60F9211242F9367
:100DA0003F934F935F936F937F938F939F93AF93F3
:100DB000BF93EF93FF93E0915C02F0915D0260813D
:100DC0008EE092E00E949606FF91EF91BF91AF9165
:100DD0009F918F917F916F915F914F913F912F9153
:100DE0000F900FBE0F901F9018951F920F920FB685
:100DF0000F9211242F933F934F935F936F937F93A1
:100E00008F939F93AF93BF93EF93FF93E091B802BB
:100E1000F091B90260818AE692E00E949606FF9105
:100E2000EF91BF91AF919F918F917F916F915F9162
:100E30004F913F912F910F900FBE0F901F901895DB
:100E400060E08EE592E00E94440561E082E092E07D
:100E50000C944405CF92DF92EF92FF920F931F9371
:100E6000CF93DF936C01EB017A01E60EF71E00E0F1
:100E700010E00BC06991D601ED91FC910190F081D9
:100E8000E02DC6010995080F191FCE15DF0591F752
:100E9000C801DF91CF911F910F91FF90EF90DF90EC
:100EA000CF9008956115710581F0DB010D90002050
:100EB000E9F7AD0141505109461B570BDC01ED919B
:100EC000FC910280F381E02D099480E090E0089588
:100ED000DC01ED91FC910190F081E02D09940F93DC
:100EE0001F93CF93DF93EC016DE00E9468078C01A4
:100EF0006AE0CE010E9468079C01200F311FC901E2
:100F0000DF91CF911F910F9108954F925F926F9251
:100F10007F929F92AF92BF92CF92DF92EF92FF9219
:100F20000F931F93CF93DF93CDB7DEB7A1970FB683
:100F3000F894DEBF0FBECDBF5C016A017B01922E2B
:100F400019A281E0821710F08AE0982E8E010F5DC1
:100F50001F4F492C512C612C712CC701B601A301E4
:100F600092010E94EB0A8C2D929E8019112401504F
:100F700011098A3014F4805D01C0895CF801808316
:100F800069017A01C114D104E104F10431F7B80117
:100F9000C5010E945207A1960FB6F894DEBF0FBE9E
:100FA000CDBFDF91CF911F910F91FF90EF90DF9018
:100FB000CF90BF90AF909F907F906F905F904F9039
:100FC00008952115310541F4DC01ED91FC9101906A
:100FD000F081E02D642F09940C9485070F931F93E3
:100FE000CF93DF93EC019A01462F50E060E070E070
:100FF0000E94E1078C01CE010E946F079801280F23
:10100000391FC901DF91CF911F910F91089563E0BE
:101010008EEF92E00E94C60A21E04AE253E060E0CF
:101020008EEF92E00E949C0A64E08EEF92E00E94B4
:10103000C90961E08CED92E00E94C60A64E08CED83
:1010400092E00E94C90961E08AEB92E00E94C60A20
:1010500064E08AEB92E00E94C909789408951F9297
:101060000F920FB60F9211242F933F934F935F93DC
:101070006F937F938F939F93AF93BF93EF93FF9360
:10108000E0911803F0911903309709F00995FF9149
:10109000EF91BF91AF919F918F917F916F915F91F0
:1010A0004F913F912F910F900FBE0F901F90189569
:1010B0001F920F920FB60F9211242F933F934F93CD
:1010C0005F936F937F938F939F93AF93BF93EF93B0
:1010D000FF93E0911A03F0911B03309709F00995F3
:1010E000FF91EF91BF91AF919F918F917F916F9100
:1010F0005F914F913F912F910F900FBE0F901F90D6
:1011000018951F920F920FB60F9211242F933F93B1
:101110004F935F936F937F938F939F93AF93BF93FF
:10112000EF93FF93E0911603F0911703309709F0C6
:101130000995FF91EF91BF91AF919F918F917F9111
:101140006F915F914F913F912F910F900FBE0F9034
:101150001F9018951F920F920FB60F9211242F9384
:101160003F934F935F936F937F938F939F93AF932F
:10117000BF93EF93FF93E091D402F091D5023097A3
:1011800009F00995FF91EF91BF91AF919F918F91D8
:101190007F916F915F914F913F912F910F900FBE73
:1011A0000F901F9018951F920F920FB60F92112457
:1011B0002F933F934F935F936F937F938F939F935F
:1011C000AF93BF93EF93FF93E091D602F091D702D4
:1011D000309709F00995FF91EF91BF91AF919F91E1
:1011E0008F917F916F915F914F913F912F910F90D0
:1011F0000FBE0F901F9018951F920F920FB60F926F
:1012000011242F933F934F935F936F937F938F930B
:101210009F93AF93BF93EF93FF93E091D202F0912E
:10122000D302309709F00995FF91EF91BF91AF91EB
:101230009F918F917F916F915F914F913F912F91EE
:101240000F900FBE0F901F9018951F920F920FB620
:101250000F9211242F933F934F935F936F937F933C
:101260008F939F93AF93BF93EF93FF93E091F60219
:10127000F091F702309709F00995FF91EF91BF9136
:10128000AF919F918F917F916F915F914F913F911E
:101290002F910F900FBE0F901F9018951F920F92D5
:1012A0000FB60F9211242F933F934F935F936F9339
:1012B0007F938F939F93AF93BF93EF93FF93E091AF
:1012C000F802F091F902309709F00995FF91EF913A
:1012D000BF91AF919F918F917F916F915F914F914E
:1012E0003F912F910F900FBE0F901F9018951F9256
:1012F0000F920FB60F9211242F933F934F935F934A
:101300006F937F938F939F93AF93BF93EF93FF93CD
:10131000E091F402F091F502309709F00995FF9100
:10132000EF91BF91AF919F918F917F916F915F915D
:101330004F913F912F910F900FBE0F901F901895D6
:101340001F920F920FB60F9211242F933F934F933A
:101350005F936F937F938F939F93AF93BF93EF931D
:10136000FF93E091FC02F091FD02309709F009959E
:10137000FF91EF91BF91AF919F918F917F916F916D
:101380005F914F913F912F910F900FBE0F901F9043
:101390001895DC012C916150223039F4673068F4E3
:1013A000E62FF0E0E85CFE4F06C0693030F4E62F2F
:1013B000F0E0E15CFE4F208101C020E0DC011A96E4
:1013C000ED91FC911B978081887F822B808308950B
:1013D000CF93DF93EC016883613011F120F062302C
:1013E00009F06CC048C01B821A8286E490E09D839D
:1013F0008C838EE690E09F838E8384E490E09987CF
:10140000888785E490E09B878A871D861C8687E411
:1014100090E09F878E87198A188A88E490E022C01E
:101420008FE690E09F838E8385E890E09B838A839C
:1014300084E890E09D838C8380E890E0998788879A
:1014400081E890E09B878A8789E890E09D878C8778
:1014500088E890E09F878E878BE890E0998B888B57
:101460008AE890E09B8B8A8B1D8A1C8A1F8A1E8AC1
:1014700082E0898323C01B821A8282EB90E09D83E5
:101480008C8380E790E09F838E8380EB90E0998748
:10149000888781EB90E09B878A871D861C8683EB7B
:1014A00090E09F878E87198A188A84EB90E09B8B47
:1014B0008A8B1D8A1C8A1F8A1E8A698360E0CE017E
:1014C0000E94C909EA81FB81309709F01082EC8102
:1014D000FD811082198E188E1B8E1A8E1D8E1C8E09
:1014E0001F8E1E8E19A218A2DF91CF91089551E090
:1014F000411101C050E06530F0F4E62FF0E0E85B08
:10150000FE4F408147FD17C0DC011696ED91FC911E
:101510001797808121E030E0042E01C0220F0A9449
:10152000EAF720952823852F042E01C0880F0A94FE
:10153000EAF7282B20830895623099F028F4662377
:1015400041F06130C9F409C0633079F06430A1F42E
:1015500010C0FC01518F408F0FC0FC01538F428F90
:101560000BC0FC01558F448F07C0FC01578F468F7D
:1015700003C0FC0151A340A3452B11F440E003C07C
:10158000222319F041E00C94770A0895DC011896A3
:10159000ED91FC9119973081262F23703C7F232BEE
:1015A00020831A96ED91FC911B9780816C70660FD9
:1015B000877E682B6083089560E08EEF92E00E9442
:1015C000E80961E08CED92E00E94E80962E08AEBB4
:1015D00092E00C94E809A1E21A2EAA1BBB1BFD01A4
:1015E0000DC0AA1FBB1FEE1FFF1FA217B307E40702
:1015F000F50720F0A21BB30BE40BF50B661F771F5A
:10160000881F991F1A9469F7609570958095909539
:101610009B01AC01BD01CF010895052E97FB16F487
:10162000009407D057FD0DD00E94EB0A07FC09D0AB
:101630007EF490958095709561957F4F8F4F9F4F69
:10164000089550954095309521953F4F4F4F5F4FEE
:101650000895EE0FFF1F0590F491E02D0994F89482
:02166000FFCFBA
:101662000000200320000F000F000F000000000008
:10167200690167010000000044042A07F603FB0326
:1016820021040F04000000001C049C04A2040000BA
:1016920000001704900496040102030405060701E2
:0E16A200020003000405060700010203050014
:00000001FF
